{
  "address": "0xe7f1725E7734CE288F8367e1Bb143E90bb3F0512",
  "abi": [
    {
      "inputs": [],
      "stateMutability": "nonpayable",
      "type": "constructor"
    },
    {
      "inputs": [],
      "name": "nftown_ETHNotEnough",
      "type": "error"
    },
    {
      "anonymous": false,
      "inputs": [
        {
          "indexed": true,
          "internalType": "address",
          "name": "owner",
          "type": "address"
        },
        {
          "indexed": true,
          "internalType": "address",
          "name": "approved",
          "type": "address"
        },
        {
          "indexed": true,
          "internalType": "uint256",
          "name": "tokenId",
          "type": "uint256"
        }
      ],
      "name": "Approval",
      "type": "event"
    },
    {
      "anonymous": false,
      "inputs": [
        {
          "indexed": true,
          "internalType": "address",
          "name": "owner",
          "type": "address"
        },
        {
          "indexed": true,
          "internalType": "address",
          "name": "operator",
          "type": "address"
        },
        {
          "indexed": false,
          "internalType": "bool",
          "name": "approved",
          "type": "bool"
        }
      ],
      "name": "ApprovalForAll",
      "type": "event"
    },
    {
      "anonymous": false,
      "inputs": [
        {
          "indexed": true,
          "internalType": "uint256",
          "name": "tokenId",
          "type": "uint256"
        }
      ],
      "name": "NftMinted",
      "type": "event"
    },
    {
      "anonymous": false,
      "inputs": [
        {
          "indexed": true,
          "internalType": "address",
          "name": "from",
          "type": "address"
        },
        {
          "indexed": true,
          "internalType": "address",
          "name": "to",
          "type": "address"
        },
        {
          "indexed": true,
          "internalType": "uint256",
          "name": "tokenId",
          "type": "uint256"
        }
      ],
      "name": "Transfer",
      "type": "event"
    },
    {
      "inputs": [
        {
          "internalType": "address",
          "name": "to",
          "type": "address"
        },
        {
          "internalType": "uint256",
          "name": "tokenId",
          "type": "uint256"
        }
      ],
      "name": "approve",
      "outputs": [],
      "stateMutability": "nonpayable",
      "type": "function"
    },
    {
      "inputs": [
        {
          "internalType": "address",
          "name": "owner",
          "type": "address"
        }
      ],
      "name": "balanceOf",
      "outputs": [
        {
          "internalType": "uint256",
          "name": "",
          "type": "uint256"
        }
      ],
      "stateMutability": "view",
      "type": "function"
    },
    {
      "inputs": [
        {
          "internalType": "uint256",
          "name": "tokenId",
          "type": "uint256"
        }
      ],
      "name": "getApproved",
      "outputs": [
        {
          "internalType": "address",
          "name": "",
          "type": "address"
        }
      ],
      "stateMutability": "view",
      "type": "function"
    },
    {
      "inputs": [
        {
          "internalType": "address",
          "name": "owner",
          "type": "address"
        },
        {
          "internalType": "address",
          "name": "operator",
          "type": "address"
        }
      ],
      "name": "isApprovedForAll",
      "outputs": [
        {
          "internalType": "bool",
          "name": "",
          "type": "bool"
        }
      ],
      "stateMutability": "view",
      "type": "function"
    },
    {
      "inputs": [
        {
          "internalType": "string",
          "name": "tokenURI",
          "type": "string"
        },
        {
          "internalType": "address",
          "name": "mintTo",
          "type": "address"
        }
      ],
      "name": "mintNft",
      "outputs": [],
      "stateMutability": "payable",
      "type": "function"
    },
    {
      "inputs": [],
      "name": "name",
      "outputs": [
        {
          "internalType": "string",
          "name": "",
          "type": "string"
        }
      ],
      "stateMutability": "view",
      "type": "function"
    },
    {
      "inputs": [
        {
          "internalType": "uint256",
          "name": "tokenId",
          "type": "uint256"
        }
      ],
      "name": "ownerOf",
      "outputs": [
        {
          "internalType": "address",
          "name": "",
          "type": "address"
        }
      ],
      "stateMutability": "view",
      "type": "function"
    },
    {
      "inputs": [
        {
          "internalType": "address",
          "name": "from",
          "type": "address"
        },
        {
          "internalType": "address",
          "name": "to",
          "type": "address"
        },
        {
          "internalType": "uint256",
          "name": "tokenId",
          "type": "uint256"
        }
      ],
      "name": "safeTransferFrom",
      "outputs": [],
      "stateMutability": "nonpayable",
      "type": "function"
    },
    {
      "inputs": [
        {
          "internalType": "address",
          "name": "from",
          "type": "address"
        },
        {
          "internalType": "address",
          "name": "to",
          "type": "address"
        },
        {
          "internalType": "uint256",
          "name": "tokenId",
          "type": "uint256"
        },
        {
          "internalType": "bytes",
          "name": "data",
          "type": "bytes"
        }
      ],
      "name": "safeTransferFrom",
      "outputs": [],
      "stateMutability": "nonpayable",
      "type": "function"
    },
    {
      "inputs": [
        {
          "internalType": "address",
          "name": "operator",
          "type": "address"
        },
        {
          "internalType": "bool",
          "name": "approved",
          "type": "bool"
        }
      ],
      "name": "setApprovalForAll",
      "outputs": [],
      "stateMutability": "nonpayable",
      "type": "function"
    },
    {
      "inputs": [
        {
          "internalType": "bytes4",
          "name": "interfaceId",
          "type": "bytes4"
        }
      ],
      "name": "supportsInterface",
      "outputs": [
        {
          "internalType": "bool",
          "name": "",
          "type": "bool"
        }
      ],
      "stateMutability": "view",
      "type": "function"
    },
    {
      "inputs": [],
      "name": "symbol",
      "outputs": [
        {
          "internalType": "string",
          "name": "",
          "type": "string"
        }
      ],
      "stateMutability": "view",
      "type": "function"
    },
    {
      "inputs": [
        {
          "internalType": "uint256",
          "name": "tokenId",
          "type": "uint256"
        }
      ],
      "name": "tokenURI",
      "outputs": [
        {
          "internalType": "string",
          "name": "",
          "type": "string"
        }
      ],
      "stateMutability": "view",
      "type": "function"
    },
    {
      "inputs": [
        {
          "internalType": "address",
          "name": "from",
          "type": "address"
        },
        {
          "internalType": "address",
          "name": "to",
          "type": "address"
        },
        {
          "internalType": "uint256",
          "name": "tokenId",
          "type": "uint256"
        }
      ],
      "name": "transferFrom",
      "outputs": [],
      "stateMutability": "nonpayable",
      "type": "function"
    }
  ],
  "transactionHash": "0x54ce0bf65a84e9044b2bb780c1ede19a7afde3b5ff1b658f6052176e539263d8",
  "args": [],
  "numDeployments": 1,
  "solcInputHash": "5afd6e69d6ab1f73e4ef3e4e0519e0d2",
  "bytecode": "0x60806040523480156200001157600080fd5b506040518060400160405280600681526020017f4e46544f574e00000000000000000000000000000000000000000000000000008152506040518060400160405280600381526020017f3331300000000000000000000000000000000000000000000000000000000000815250816000908051906020019062000096929190620000b8565b508060019080519060200190620000af929190620000b8565b505050620001cd565b828054620000c69062000197565b90600052602060002090601f016020900481019282620000ea576000855562000136565b82601f106200010557805160ff191683800117855562000136565b8280016001018555821562000136579182015b828111156200013557825182559160200191906001019062000118565b5b50905062000145919062000149565b5090565b5b80821115620001645760008160009055506001016200014a565b5090565b7f4e487b7100000000000000000000000000000000000000000000000000000000600052602260045260246000fd5b60006002820490506001821680620001b057607f821691505b60208210811415620001c757620001c662000168565b5b50919050565b6129eb80620001dd6000396000f3fe6080604052600436106100dd5760003560e01c80636352211e1161007f578063a22cb46511610059578063a22cb465146102c3578063b88d4fde146102ec578063c87b56dd14610315578063e985e9c514610352576100dd565b80636352211e1461021e57806370a082311461025b57806395d89b4114610298576100dd565b8063095ea7b3116100bb578063095ea7b3146101875780631c8b45c3146101b057806323b872dd146101cc57806342842e0e146101f5576100dd565b806301ffc9a7146100e257806306fdde031461011f578063081812fc1461014a575b600080fd5b3480156100ee57600080fd5b50610109600480360381019061010491906119f8565b61038f565b6040516101169190611a40565b60405180910390f35b34801561012b57600080fd5b50610134610471565b6040516101419190611af4565b60405180910390f35b34801561015657600080fd5b50610171600480360381019061016c9190611b4c565b610503565b60405161017e9190611bba565b60405180910390f35b34801561019357600080fd5b506101ae60048036038101906101a99190611c01565b610549565b005b6101ca60048036038101906101c59190611ca6565b610661565b005b3480156101d857600080fd5b506101f360048036038101906101ee9190611d06565b610718565b005b34801561020157600080fd5b5061021c60048036038101906102179190611d06565b610778565b005b34801561022a57600080fd5b5061024560048036038101906102409190611b4c565b610798565b6040516102529190611bba565b60405180910390f35b34801561026757600080fd5b50610282600480360381019061027d9190611d59565b61084a565b60405161028f9190611d95565b60405180910390f35b3480156102a457600080fd5b506102ad610902565b6040516102ba9190611af4565b60405180910390f35b3480156102cf57600080fd5b506102ea60048036038101906102e59190611ddc565b610994565b005b3480156102f857600080fd5b50610313600480360381019061030e9190611f4c565b6109aa565b005b34801561032157600080fd5b5061033c60048036038101906103379190611b4c565b610a0c565b6040516103499190611af4565b60405180910390f35b34801561035e57600080fd5b5061037960048036038101906103749190611fcf565b610b1f565b6040516103869190611a40565b60405180910390f35b60007f80ac58cd000000000000000000000000000000000000000000000000000000007bffffffffffffffffffffffffffffffffffffffffffffffffffffffff1916827bffffffffffffffffffffffffffffffffffffffffffffffffffffffff1916148061045a57507f5b5e139f000000000000000000000000000000000000000000000000000000007bffffffffffffffffffffffffffffffffffffffffffffffffffffffff1916827bffffffffffffffffffffffffffffffffffffffffffffffffffffffff1916145b8061046a575061046982610bb3565b5b9050919050565b6060600080546104809061203e565b80601f01602080910402602001604051908101604052809291908181526020018280546104ac9061203e565b80156104f95780601f106104ce576101008083540402835291602001916104f9565b820191906000526020600020905b8154815290600101906020018083116104dc57829003601f168201915b5050505050905090565b600061050e82610c1d565b6004600083815260200190815260200160002060009054906101000a900473ffffffffffffffffffffffffffffffffffffffff169050919050565b600061055482610798565b90508073ffffffffffffffffffffffffffffffffffffffff168373ffffffffffffffffffffffffffffffffffffffff1614156105c5576040517f08c379a00000000000000000000000000000000000000000000000000000000081526004016105bc906120e2565b60405180910390fd5b8073ffffffffffffffffffffffffffffffffffffffff166105e4610c68565b73ffffffffffffffffffffffffffffffffffffffff16148061061357506106128161060d610c68565b610b1f565b5b610652576040517f08c379a000000000000000000000000000000000000000000000000000000000815260040161064990612174565b60405180910390fd5b61065c8383610c70565b505050565b66038d7ea4c680003410156106a2576040517f2a77fbcf00000000000000000000000000000000000000000000000000000000815260040160405180910390fd5b60006106ae6007610d29565b90506106ba8282610d37565b6107088185858080601f016020809104026020016040519081016040528093929190818152602001838380828437600081840152601f19601f82011690508083019250505050505050610d55565b6107126007610dc9565b50505050565b610729610723610c68565b82610ddf565b610768576040517f08c379a000000000000000000000000000000000000000000000000000000000815260040161075f90612206565b60405180910390fd5b610773838383610e74565b505050565b610793838383604051806020016040528060008152506109aa565b505050565b6000806002600084815260200190815260200160002060009054906101000a900473ffffffffffffffffffffffffffffffffffffffff169050600073ffffffffffffffffffffffffffffffffffffffff168173ffffffffffffffffffffffffffffffffffffffff161415610841576040517f08c379a000000000000000000000000000000000000000000000000000000000815260040161083890612272565b60405180910390fd5b80915050919050565b60008073ffffffffffffffffffffffffffffffffffffffff168273ffffffffffffffffffffffffffffffffffffffff1614156108bb576040517f08c379a00000000000000000000000000000000000000000000000000000000081526004016108b290612304565b60405180910390fd5b600360008373ffffffffffffffffffffffffffffffffffffffff1673ffffffffffffffffffffffffffffffffffffffff168152602001908152602001600020549050919050565b6060600180546109119061203e565b80601f016020809104026020016040519081016040528092919081815260200182805461093d9061203e565b801561098a5780601f1061095f5761010080835404028352916020019161098a565b820191906000526020600020905b81548152906001019060200180831161096d57829003601f168201915b5050505050905090565b6109a661099f610c68565b83836110db565b5050565b6109bb6109b5610c68565b83610ddf565b6109fa576040517f08c379a00000000000000000000000000000000000000000000000000000000081526004016109f190612206565b60405180910390fd5b610a0684848484611248565b50505050565b6060610a1782610c1d565b6000600660008481526020019081526020016000208054610a379061203e565b80601f0160208091040260200160405190810160405280929190818152602001828054610a639061203e565b8015610ab05780601f10610a8557610100808354040283529160200191610ab0565b820191906000526020600020905b815481529060010190602001808311610a9357829003601f168201915b505050505090506000610ac16112a4565b9050600081511415610ad7578192505050610b1a565b600082511115610b0c578082604051602001610af4929190612360565b60405160208183030381529060405292505050610b1a565b610b15846112bb565b925050505b919050565b6000600560008473ffffffffffffffffffffffffffffffffffffffff1673ffffffffffffffffffffffffffffffffffffffff16815260200190815260200160002060008373ffffffffffffffffffffffffffffffffffffffff1673ffffffffffffffffffffffffffffffffffffffff16815260200190815260200160002060009054906101000a900460ff16905092915050565b60007f01ffc9a7000000000000000000000000000000000000000000000000000000007bffffffffffffffffffffffffffffffffffffffffffffffffffffffff1916827bffffffffffffffffffffffffffffffffffffffffffffffffffffffff1916149050919050565b610c2681611323565b610c65576040517f08c379a0000000000000000000000000000000000000000000000000000000008152600401610c5c90612272565b60405180910390fd5b50565b600033905090565b816004600083815260200190815260200160002060006101000a81548173ffffffffffffffffffffffffffffffffffffffff021916908373ffffffffffffffffffffffffffffffffffffffff160217905550808273ffffffffffffffffffffffffffffffffffffffff16610ce383610798565b73ffffffffffffffffffffffffffffffffffffffff167f8c5be1e5ebec7d5bd14f71427d1e84f3dd0314c0f7b2291e5b200ac8c7c3b92560405160405180910390a45050565b600081600001549050919050565b610d5182826040518060200160405280600081525061138f565b5050565b610d5e82611323565b610d9d576040517f08c379a0000000000000000000000000000000000000000000000000000000008152600401610d94906123f6565b60405180910390fd5b80600660008481526020019081526020016000209080519060200190610dc49291906118e9565b505050565b6001816000016000828254019250508190555050565b600080610deb83610798565b90508073ffffffffffffffffffffffffffffffffffffffff168473ffffffffffffffffffffffffffffffffffffffff161480610e2d5750610e2c8185610b1f565b5b80610e6b57508373ffffffffffffffffffffffffffffffffffffffff16610e5384610503565b73ffffffffffffffffffffffffffffffffffffffff16145b91505092915050565b8273ffffffffffffffffffffffffffffffffffffffff16610e9482610798565b73ffffffffffffffffffffffffffffffffffffffff1614610eea576040517f08c379a0000000000000000000000000000000000000000000000000000000008152600401610ee190612488565b60405180910390fd5b600073ffffffffffffffffffffffffffffffffffffffff168273ffffffffffffffffffffffffffffffffffffffff161415610f5a576040517f08c379a0000000000000000000000000000000000000000000000000000000008152600401610f519061251a565b60405180910390fd5b610f658383836113ea565b610f70600082610c70565b6001600360008573ffffffffffffffffffffffffffffffffffffffff1673ffffffffffffffffffffffffffffffffffffffff1681526020019081526020016000206000828254610fc09190612569565b925050819055506001600360008473ffffffffffffffffffffffffffffffffffffffff1673ffffffffffffffffffffffffffffffffffffffff1681526020019081526020016000206000828254611017919061259d565b92505081905550816002600083815260200190815260200160002060006101000a81548173ffffffffffffffffffffffffffffffffffffffff021916908373ffffffffffffffffffffffffffffffffffffffff160217905550808273ffffffffffffffffffffffffffffffffffffffff168473ffffffffffffffffffffffffffffffffffffffff167fddf252ad1be2c89b69c2b068fc378daa952ba7f163c4a11628f55a4df523b3ef60405160405180910390a46110d68383836113ef565b505050565b8173ffffffffffffffffffffffffffffffffffffffff168373ffffffffffffffffffffffffffffffffffffffff16141561114a576040517f08c379a00000000000000000000000000000000000000000000000000000000081526004016111419061263f565b60405180910390fd5b80600560008573ffffffffffffffffffffffffffffffffffffffff1673ffffffffffffffffffffffffffffffffffffffff16815260200190815260200160002060008473ffffffffffffffffffffffffffffffffffffffff1673ffffffffffffffffffffffffffffffffffffffff16815260200190815260200160002060006101000a81548160ff0219169083151502179055508173ffffffffffffffffffffffffffffffffffffffff168373ffffffffffffffffffffffffffffffffffffffff167f17307eab39ab6107e8899845ad3d59bd9653f200f220920489ca2b5937696c318360405161123b9190611a40565b60405180910390a3505050565b611253848484610e74565b61125f848484846113f4565b61129e576040517f08c379a0000000000000000000000000000000000000000000000000000000008152600401611295906126d1565b60405180910390fd5b50505050565b606060405180602001604052806000815250905090565b60606112c682610c1d565b60006112d06112a4565b905060008151116112f0576040518060200160405280600081525061131b565b806112fa8461158b565b60405160200161130b929190612360565b6040516020818303038152906040525b915050919050565b60008073ffffffffffffffffffffffffffffffffffffffff166002600084815260200190815260200160002060009054906101000a900473ffffffffffffffffffffffffffffffffffffffff1673ffffffffffffffffffffffffffffffffffffffff1614159050919050565b61139983836116ec565b6113a660008484846113f4565b6113e5576040517f08c379a00000000000000000000000000000000000000000000000000000000081526004016113dc906126d1565b60405180910390fd5b505050565b505050565b505050565b60006114158473ffffffffffffffffffffffffffffffffffffffff166118c6565b1561157e578373ffffffffffffffffffffffffffffffffffffffff1663150b7a0261143e610c68565b8786866040518563ffffffff1660e01b81526004016114609493929190612746565b602060405180830381600087803b15801561147a57600080fd5b505af19250505080156114ab57506040513d601f19601f820116820180604052508101906114a891906127a7565b60015b61152e573d80600081146114db576040519150601f19603f3d011682016040523d82523d6000602084013e6114e0565b606091505b50600081511415611526576040517f08c379a000000000000000000000000000000000000000000000000000000000815260040161151d906126d1565b60405180910390fd5b805181602001fd5b63150b7a0260e01b7bffffffffffffffffffffffffffffffffffffffffffffffffffffffff1916817bffffffffffffffffffffffffffffffffffffffffffffffffffffffff191614915050611583565b600190505b949350505050565b606060008214156115d3576040518060400160405280600181526020017f300000000000000000000000000000000000000000000000000000000000000081525090506116e7565b600082905060005b600082146116055780806115ee906127d4565b915050600a826115fe919061284c565b91506115db565b60008167ffffffffffffffff81111561162157611620611e21565b5b6040519080825280601f01601f1916602001820160405280156116535781602001600182028036833780820191505090505b5090505b600085146116e05760018261166c9190612569565b9150600a8561167b919061287d565b6030611687919061259d565b60f81b81838151811061169d5761169c6128ae565b5b60200101907effffffffffffffffffffffffffffffffffffffffffffffffffffffffffffff1916908160001a905350600a856116d9919061284c565b9450611657565b8093505050505b919050565b600073ffffffffffffffffffffffffffffffffffffffff168273ffffffffffffffffffffffffffffffffffffffff16141561175c576040517f08c379a000000000000000000000000000000000000000000000000000000000815260040161175390612929565b60405180910390fd5b61176581611323565b156117a5576040517f08c379a000000000000000000000000000000000000000000000000000000000815260040161179c90612995565b60405180910390fd5b6117b1600083836113ea565b6001600360008473ffffffffffffffffffffffffffffffffffffffff1673ffffffffffffffffffffffffffffffffffffffff1681526020019081526020016000206000828254611801919061259d565b92505081905550816002600083815260200190815260200160002060006101000a81548173ffffffffffffffffffffffffffffffffffffffff021916908373ffffffffffffffffffffffffffffffffffffffff160217905550808273ffffffffffffffffffffffffffffffffffffffff16600073ffffffffffffffffffffffffffffffffffffffff167fddf252ad1be2c89b69c2b068fc378daa952ba7f163c4a11628f55a4df523b3ef60405160405180910390a46118c2600083836113ef565b5050565b6000808273ffffffffffffffffffffffffffffffffffffffff163b119050919050565b8280546118f59061203e565b90600052602060002090601f016020900481019282611917576000855561195e565b82601f1061193057805160ff191683800117855561195e565b8280016001018555821561195e579182015b8281111561195d578251825591602001919060010190611942565b5b50905061196b919061196f565b5090565b5b80821115611988576000816000905550600101611970565b5090565b6000604051905090565b600080fd5b600080fd5b60007fffffffff0000000000000000000000000000000000000000000000000000000082169050919050565b6119d5816119a0565b81146119e057600080fd5b50565b6000813590506119f2816119cc565b92915050565b600060208284031215611a0e57611a0d611996565b5b6000611a1c848285016119e3565b91505092915050565b60008115159050919050565b611a3a81611a25565b82525050565b6000602082019050611a556000830184611a31565b92915050565b600081519050919050565b600082825260208201905092915050565b60005b83811015611a95578082015181840152602081019050611a7a565b83811115611aa4576000848401525b50505050565b6000601f19601f8301169050919050565b6000611ac682611a5b565b611ad08185611a66565b9350611ae0818560208601611a77565b611ae981611aaa565b840191505092915050565b60006020820190508181036000830152611b0e8184611abb565b905092915050565b6000819050919050565b611b2981611b16565b8114611b3457600080fd5b50565b600081359050611b4681611b20565b92915050565b600060208284031215611b6257611b61611996565b5b6000611b7084828501611b37565b91505092915050565b600073ffffffffffffffffffffffffffffffffffffffff82169050919050565b6000611ba482611b79565b9050919050565b611bb481611b99565b82525050565b6000602082019050611bcf6000830184611bab565b92915050565b611bde81611b99565b8114611be957600080fd5b50565b600081359050611bfb81611bd5565b92915050565b60008060408385031215611c1857611c17611996565b5b6000611c2685828601611bec565b9250506020611c3785828601611b37565b9150509250929050565b600080fd5b600080fd5b600080fd5b60008083601f840112611c6657611c65611c41565b5b8235905067ffffffffffffffff811115611c8357611c82611c46565b5b602083019150836001820283011115611c9f57611c9e611c4b565b5b9250929050565b600080600060408486031215611cbf57611cbe611996565b5b600084013567ffffffffffffffff811115611cdd57611cdc61199b565b5b611ce986828701611c50565b93509350506020611cfc86828701611bec565b9150509250925092565b600080600060608486031215611d1f57611d1e611996565b5b6000611d2d86828701611bec565b9350506020611d3e86828701611bec565b9250506040611d4f86828701611b37565b9150509250925092565b600060208284031215611d6f57611d6e611996565b5b6000611d7d84828501611bec565b91505092915050565b611d8f81611b16565b82525050565b6000602082019050611daa6000830184611d86565b92915050565b611db981611a25565b8114611dc457600080fd5b50565b600081359050611dd681611db0565b92915050565b60008060408385031215611df357611df2611996565b5b6000611e0185828601611bec565b9250506020611e1285828601611dc7565b9150509250929050565b600080fd5b7f4e487b7100000000000000000000000000000000000000000000000000000000600052604160045260246000fd5b611e5982611aaa565b810181811067ffffffffffffffff82111715611e7857611e77611e21565b5b80604052505050565b6000611e8b61198c565b9050611e978282611e50565b919050565b600067ffffffffffffffff821115611eb757611eb6611e21565b5b611ec082611aaa565b9050602081019050919050565b82818337600083830152505050565b6000611eef611eea84611e9c565b611e81565b905082815260208101848484011115611f0b57611f0a611e1c565b5b611f16848285611ecd565b509392505050565b600082601f830112611f3357611f32611c41565b5b8135611f43848260208601611edc565b91505092915050565b60008060008060808587031215611f6657611f65611996565b5b6000611f7487828801611bec565b9450506020611f8587828801611bec565b9350506040611f9687828801611b37565b925050606085013567ffffffffffffffff811115611fb757611fb661199b565b5b611fc387828801611f1e565b91505092959194509250565b60008060408385031215611fe657611fe5611996565b5b6000611ff485828601611bec565b925050602061200585828601611bec565b9150509250929050565b7f4e487b7100000000000000000000000000000000000000000000000000000000600052602260045260246000fd5b6000600282049050600182168061205657607f821691505b6020821081141561206a5761206961200f565b5b50919050565b7f4552433732313a20617070726f76616c20746f2063757272656e74206f776e6560008201527f7200000000000000000000000000000000000000000000000000000000000000602082015250565b60006120cc602183611a66565b91506120d782612070565b604082019050919050565b600060208201905081810360008301526120fb816120bf565b9050919050565b7f4552433732313a20617070726f76652063616c6c6572206973206e6f7420746f60008201527f6b656e206f776e6572206e6f7220617070726f76656420666f7220616c6c0000602082015250565b600061215e603e83611a66565b915061216982612102565b604082019050919050565b6000602082019050818103600083015261218d81612151565b9050919050565b7f4552433732313a2063616c6c6572206973206e6f7420746f6b656e206f776e6560008201527f72206e6f7220617070726f766564000000000000000000000000000000000000602082015250565b60006121f0602e83611a66565b91506121fb82612194565b604082019050919050565b6000602082019050818103600083015261221f816121e3565b9050919050565b7f4552433732313a20696e76616c696420746f6b656e2049440000000000000000600082015250565b600061225c601883611a66565b915061226782612226565b602082019050919050565b6000602082019050818103600083015261228b8161224f565b9050919050565b7f4552433732313a2061646472657373207a65726f206973206e6f74206120766160008201527f6c6964206f776e65720000000000000000000000000000000000000000000000602082015250565b60006122ee602983611a66565b91506122f982612292565b604082019050919050565b6000602082019050818103600083015261231d816122e1565b9050919050565b600081905092915050565b600061233a82611a5b565b6123448185612324565b9350612354818560208601611a77565b80840191505092915050565b600061236c828561232f565b9150612378828461232f565b91508190509392505050565b7f45524337323155524953746f726167653a2055524920736574206f66206e6f6e60008201527f6578697374656e7420746f6b656e000000000000000000000000000000000000602082015250565b60006123e0602e83611a66565b91506123eb82612384565b604082019050919050565b6000602082019050818103600083015261240f816123d3565b9050919050565b7f4552433732313a207472616e736665722066726f6d20696e636f72726563742060008201527f6f776e6572000000000000000000000000000000000000000000000000000000602082015250565b6000612472602583611a66565b915061247d82612416565b604082019050919050565b600060208201905081810360008301526124a181612465565b9050919050565b7f4552433732313a207472616e7366657220746f20746865207a65726f2061646460008201527f7265737300000000000000000000000000000000000000000000000000000000602082015250565b6000612504602483611a66565b915061250f826124a8565b604082019050919050565b60006020820190508181036000830152612533816124f7565b9050919050565b7f4e487b7100000000000000000000000000000000000000000000000000000000600052601160045260246000fd5b600061257482611b16565b915061257f83611b16565b9250828210156125925761259161253a565b5b828203905092915050565b60006125a882611b16565b91506125b383611b16565b9250827fffffffffffffffffffffffffffffffffffffffffffffffffffffffffffffffff038211156125e8576125e761253a565b5b828201905092915050565b7f4552433732313a20617070726f766520746f2063616c6c657200000000000000600082015250565b6000612629601983611a66565b9150612634826125f3565b602082019050919050565b600060208201905081810360008301526126588161261c565b9050919050565b7f4552433732313a207472616e7366657220746f206e6f6e20455243373231526560008201527f63656976657220696d706c656d656e7465720000000000000000000000000000602082015250565b60006126bb603283611a66565b91506126c68261265f565b604082019050919050565b600060208201905081810360008301526126ea816126ae565b9050919050565b600081519050919050565b600082825260208201905092915050565b6000612718826126f1565b61272281856126fc565b9350612732818560208601611a77565b61273b81611aaa565b840191505092915050565b600060808201905061275b6000830187611bab565b6127686020830186611bab565b6127756040830185611d86565b8181036060830152612787818461270d565b905095945050505050565b6000815190506127a1816119cc565b92915050565b6000602082840312156127bd576127bc611996565b5b60006127cb84828501612792565b91505092915050565b60006127df82611b16565b91507fffffffffffffffffffffffffffffffffffffffffffffffffffffffffffffffff8214156128125761281161253a565b5b600182019050919050565b7f4e487b7100000000000000000000000000000000000000000000000000000000600052601260045260246000fd5b600061285782611b16565b915061286283611b16565b9250826128725761287161281d565b5b828204905092915050565b600061288882611b16565b915061289383611b16565b9250826128a3576128a261281d565b5b828206905092915050565b7f4e487b7100000000000000000000000000000000000000000000000000000000600052603260045260246000fd5b7f4552433732313a206d696e7420746f20746865207a65726f2061646472657373600082015250565b6000612913602083611a66565b915061291e826128dd565b602082019050919050565b6000602082019050818103600083015261294281612906565b9050919050565b7f4552433732313a20746f6b656e20616c7265616479206d696e74656400000000600082015250565b600061297f601c83611a66565b915061298a82612949565b602082019050919050565b600060208201905081810360008301526129ae81612972565b905091905056fea2646970667358221220d25c89418c20aa85d5997cd245c48e3bf80ab027ef59205aaf79c884fa36c71764736f6c63430008080033",
  "devdoc": {
    "kind": "dev",
    "methods": {
      "approve(address,uint256)": {
        "details": "See {IERC721-approve}."
      },
      "balanceOf(address)": {
        "details": "See {IERC721-balanceOf}."
      },
      "getApproved(uint256)": {
        "details": "See {IERC721-getApproved}."
      },
      "isApprovedForAll(address,address)": {
        "details": "See {IERC721-isApprovedForAll}."
      },
      "name()": {
        "details": "See {IERC721Metadata-name}."
      },
      "ownerOf(uint256)": {
        "details": "See {IERC721-ownerOf}."
      },
      "safeTransferFrom(address,address,uint256)": {
        "details": "See {IERC721-safeTransferFrom}."
      },
      "safeTransferFrom(address,address,uint256,bytes)": {
        "details": "See {IERC721-safeTransferFrom}."
      },
      "setApprovalForAll(address,bool)": {
        "details": "See {IERC721-setApprovalForAll}."
      },
      "supportsInterface(bytes4)": {
        "details": "See {IERC165-supportsInterface}."
      },
      "symbol()": {
        "details": "See {IERC721Metadata-symbol}."
      },
      "tokenURI(uint256)": {
        "details": "See {IERC721Metadata-tokenURI}."
      },
      "transferFrom(address,address,uint256)": {
        "details": "See {IERC721-transferFrom}."
      }
    },
    "version": 1
  },
  "userdoc": {
    "kind": "user",
    "methods": {},
    "version": 1
  },
  "storageLayout": {
    "storage": [
      {
        "astId": 138,
        "contract": "contracts/nftown.sol:nftown",
        "label": "_name",
        "offset": 0,
        "slot": "0",
        "type": "t_string_storage"
      },
      {
        "astId": 140,
        "contract": "contracts/nftown.sol:nftown",
        "label": "_symbol",
        "offset": 0,
        "slot": "1",
        "type": "t_string_storage"
      },
      {
        "astId": 144,
        "contract": "contracts/nftown.sol:nftown",
        "label": "_owners",
        "offset": 0,
        "slot": "2",
        "type": "t_mapping(t_uint256,t_address)"
      },
      {
        "astId": 148,
        "contract": "contracts/nftown.sol:nftown",
        "label": "_balances",
        "offset": 0,
        "slot": "3",
        "type": "t_mapping(t_address,t_uint256)"
      },
      {
        "astId": 152,
        "contract": "contracts/nftown.sol:nftown",
        "label": "_tokenApprovals",
        "offset": 0,
        "slot": "4",
        "type": "t_mapping(t_uint256,t_address)"
      },
      {
        "astId": 158,
        "contract": "contracts/nftown.sol:nftown",
        "label": "_operatorApprovals",
        "offset": 0,
        "slot": "5",
        "type": "t_mapping(t_address,t_mapping(t_address,t_bool))"
      },
      {
        "astId": 1126,
        "contract": "contracts/nftown.sol:nftown",
        "label": "_tokenURIs",
        "offset": 0,
        "slot": "6",
        "type": "t_mapping(t_uint256,t_string_storage)"
      },
      {
        "astId": 1934,
        "contract": "contracts/nftown.sol:nftown",
        "label": "_tokenIds",
        "offset": 0,
        "slot": "7",
        "type": "t_struct(Counter)1588_storage"
      }
    ],
    "types": {
      "t_address": {
        "encoding": "inplace",
        "label": "address",
        "numberOfBytes": "20"
      },
      "t_bool": {
        "encoding": "inplace",
        "label": "bool",
        "numberOfBytes": "1"
      },
      "t_mapping(t_address,t_bool)": {
        "encoding": "mapping",
        "key": "t_address",
        "label": "mapping(address => bool)",
        "numberOfBytes": "32",
        "value": "t_bool"
      },
      "t_mapping(t_address,t_mapping(t_address,t_bool))": {
        "encoding": "mapping",
        "key": "t_address",
        "label": "mapping(address => mapping(address => bool))",
        "numberOfBytes": "32",
        "value": "t_mapping(t_address,t_bool)"
      },
      "t_mapping(t_address,t_uint256)": {
        "encoding": "mapping",
        "key": "t_address",
        "label": "mapping(address => uint256)",
        "numberOfBytes": "32",
        "value": "t_uint256"
      },
      "t_mapping(t_uint256,t_address)": {
        "encoding": "mapping",
        "key": "t_uint256",
        "label": "mapping(uint256 => address)",
        "numberOfBytes": "32",
        "value": "t_address"
      },
      "t_mapping(t_uint256,t_string_storage)": {
        "encoding": "mapping",
        "key": "t_uint256",
        "label": "mapping(uint256 => string)",
        "numberOfBytes": "32",
        "value": "t_string_storage"
      },
      "t_string_storage": {
        "encoding": "bytes",
        "label": "string",
        "numberOfBytes": "32"
      },
      "t_struct(Counter)1588_storage": {
        "encoding": "inplace",
        "label": "struct Counters.Counter",
        "members": [
          {
            "astId": 1587,
            "contract": "contracts/nftown.sol:nftown",
            "label": "_value",
            "offset": 0,
            "slot": "0",
            "type": "t_uint256"
          }
        ],
        "numberOfBytes": "32"
      },
      "t_uint256": {
        "encoding": "inplace",
        "label": "uint256",
        "numberOfBytes": "32"
      }
    }
  }
}